S013000066756E6374696F6E4D43552E73726563C6
S11300000C942A000C9447000C9447000C9447006D
S11300100C9447000C9447000C9447000C94470040
S11300200C9447000C9447000C9447000C94F30381
S11300300C9447000C9447000C9447000C94470020
S11300400C9447000C9447000C9447000C94470010
S11300500C94470011241FBECFE5D8E0DEBFCDBF0E
S113006011E0A0E6B0E0ECEAF6E102C005900D92E2
S1130070A03BB107D9F721E0A0EBB1E001C01D928C
S1130080AE3BB207E1F70E946E030C94540B0C9440
S113009000001F93CF93DF93D62F142FC82FC22BAA
S11300A080ED0E94990080E00E94D900812F0E9477
S11300B0D9008D2F0E94D9008C2F0E94D9000E9454
S11300C0D300DF91CF911F910895CF93C82F80ED76
S11300D00E9499008C2F0E94D90081ED0E94B600E5
S11300E00E94EB009093B3018093B2010E94EB0055
S11300F09093B5018093B4010E94F3009093B701EB
S11301008093B6010E94D300CF9108958091B201EB
S11301109091B30108958091B4019091B50108952F
S11301208091B6019091B701089511B880E280B929
S1130130089594EA96BF06B607FEFDCF91B1987F65
S1130140983071F483B984E886BF06B607FEFDCF04
S113015081B1887F883131F0803231F083E00895B5
S113016080E0089581E0089582E0089594EA96BFBE
S113017006B607FEFDCF91B1987F903171F483B933
S113018084E886BF06B607FEFDCF81B1887F803440
S113019031F0803231F083E0089580E0089581E009
S11301A0089582E0089584E986BF06B604FCFDCF75
S11301B0089583B984E886BF06B607FEFDCF81B1F2
S11301C0887F883221F0803321F082E0089580E036
S11301D0089581E0089584EC86BF06B607FEFDCF3E
S11301E083B190E0089584E886BF06B607FEFDCF8C
S11301F083B190E00895672B09F09FC0009711F434
S1130200D89808958130910511F4D99808958230D1
S1130210910511F4DA9808958330910511F4DB986F
S113022008958430910511F4DC9808958530910582
S113023011F4DD9808958630910511F4DE9808953F
S11302408730910511F4DF9808958A30910511F4EF
S1130250C09808958B30910511F4C19808958C309D
S1130260910511F4C29808958D30910511F4C39845
S113027008958E30910511F4C49808958F30910536
S113028011F4C59808958031910511F4C698089524
S11302908131910511F4C79808958431910511F4C1
S11302A0A89808958531910511F4A9980895863187
S11302B0910511F4AA9808958731910511F4AB982A
S11302C008958831910511F4AC9808958931910508
S11302D011F4AD9808958A31910511F4AE980895FA
S11302E08B31910511F4AF9808958E31910511F475
S11302F0909808958F31910511F491980895803262
S1130300910511F4929808958132910511F493980E
S113031008958232910511F49498089583329105D9
S113032011F4959808958432910511F496980895DE
S1130330859709F09FC097980895009711F4D89A6B
S113034008958130910511F4D99A08958230910568
S113035011F4DA9A08958330910511F4DB9A089523
S11303608430910511F4DC9A08958530910511F4D7
S1130370DD9A08958630910511F4DE9A0895873048
S1130380910511F4DF9A08958A30910511F4C09A09
S113039008958B30910511F4C19A08958C3091051C
S11303A011F4C29A08958D30910511F4C39A0895F9
S11303B08E30910511F4C49A08958F30910511F48B
S11303C0C59A08958031910511F4C69A0895813132
S11303D0910511F4C79A08958431910511F4A89AEE
S11303E008958531910511F4A99A089586319105EE
S11303F011F4AA9A08958731910511F4AB9A0895DE
S11304008831910511F4AC9A08958931910511F45C
S1130410AD9A08958A31910511F4AE9A08958B31FD
S1130420910511F4AF9A08958E31910511F4909AC3
S113043008958F31910511F4919A089580329105B0
S113044011F4929A08958132910511F4939A0895C2
S11304508232910511F4949A08958332910511F42E
S1130460959A08958432910511F4969A0895859782
S113047009F4979A0895CF93C82F80FF07C061E0CD
S113048070E082E290E00E94FB0006C060E070E051
S113049082E290E00E94FB00C1FF07C061E070E0CF
S11304A083E290E00E94FB0006C060E070E083E21B
S11304B090E00E94FB00C2FF07C061E070E084E2AC
S11304C090E00E94FB0006C060E070E084E290E0EF
S11304D00E94FB00C3FF07C061E070E085E290E08A
S11304E00E94FB0006C060E070E085E290E00E949C
S11304F0FB00CF910895CF93C82F60E070E08AE1AC
S113050090E00E94FB008C2F0E943B0261E070E0AF
S11305108BE190E00E94FB008FEC97E00197F1F7EC
S113052000C0000060E070E08BE190E00E94FB00FE
S11305308FEC97E00197F1F700C00000CF91089588
S113054080E00E947B0285E88A95F1F7000081E053
S11305500E947B028FE99FE00197F1F700C0000041
S11305600895CF93C62F813059F480E8860F829581
S11305708F700E947B028C2F8F700E947B0226C09A
S1130580823059F480EC860F82958F700E947B0232
S11305908C2F8F700E947B0219C0833059F4CC5683
S11305A08C2F82958F700E947B028C2F8F700E94FB
S11305B07B020CC0843051F4CC528C2F82958F7006
S11305C00E947B028C2F8F700E947B02CF91089532
S11305D080E00E943B028FE39CE90197F1F700C0A1
S11305E0000083E00E947B028FE097E20197F1F71D
S11305F000C0000083E00E947B028FEE95E5019726
S1130600F1F700C0000083E00E947B0282E00E94B8
S11306107B0282E00E947B0288E00E947B0280E0F1
S11306200E947B028CE00E947B0280E00E947B029D
S113063086E00E947B020895CF93C82F61E070E0AA
S11306408AE190E00E94FB008C2F82958F700E94BB
S11306503B0261E070E08BE190E00E94FB008FECD4
S113066097E00197F1F700C0000060E070E08BE1D3
S113067090E00E94FB008FEC97E00197F1F700C037
S113068000008C2F8F700E943B0261E070E08BE1D0
S113069090E00E94FB008FEC97E00197F1F700C017
S11306A0000060E070E08BE190E00E94FB008FECC2
S11306B097E00197F1F700C00000CF910895CF9320
S11306C0DF93EC018881882331F021960E941C037A
S11306D089918111FBCFDF91CF91089587EF81BB81
S11306E08CEF84BB80EF8ABB1BBA0E94E8020E9495
S11306F0A00264E082E00E94B1028CE690E00E94D5
S11307005F032FEF89E698E1215080409040E1F7A4
S113071000C0000081E083BF89BF78940E949500E7
S11307200E94A0020E94DB05FBCF0E94A0028FEC76
S113073097E00197F1F700C0000063E082E00E94B7
S1130740B10288E790E00E945F03C5E0D0E06AE070
S113075082E00E94B1029FEF22E587E091502040A1
S11307608040E1F700C000008EE20E941C039FEF6E
S113077022E587E0915020408040E1F700C000006E
S11307808EE20E941C039FEF22E587E091502040F7
S11307908040E1F700C000008EE20E941C036AE082
S11307A082E00E94B10288E00E941C0388E00E945B
S11307B01C0388E00E941C03219749F60E94A002B2
S11307C063E082E00E94B10280E890E00E945F034F
S11307D09FEF29E688E1915020408040E1F700C076
S11307E000000E946E031F920F920FB60F92112405
S11307F02F933F934F935F936F937F938F939F9325
S1130800AF93BF93EF93FF93839B04C08399FECF71
S11308100E949503FF91EF91BF91AF919F918F91AA
S11308207F916F915F914F913F912F910F900FBEE8
S11308300F901F9018958F929F92AF92BF92CF9274
S1130840DF92EF92FF920F931F93CF93DF93CDB775
S1130850DEB765970FB6F894DEBF0FBECDBF63E079
S113086070E081E090E00E94B1028AE891E00E9489
S11308705F0362E070E083E090E00E94B1020E94B6
S113088086005C010E948B006C010E9490007C0138
S113089080E00E946500BF92AF92DF92CF92FF92F8
S11308A0EF9285E890E09F938F938E010E5F1F4F28
S11308B01F930F930E945A08C8010E945F030FB64A
S11308C0F894DEBF0FBECDBF00E010E004C00830D6
S11308D011050CF069C00230110519F0053011053D
S11308E019F40F5F1F4FF3CF0E94B10789838FE183
S11308F09EE40197F1F700C0000089818E3439F33A
S1130900CE0101960E94FB074C01B8016E5F7F4F38
S113091083E090E00E94B102898190E00E941C0370
S11309209FEF24E38CE0915020408040E1F700C029
S113093000000115110551F47401EE0CFF1CEE0CBE
S1130940FF1CEE0CFF1CEE0CFF1C2BC0013011052C
S113095019F4E80CF91C25C00330110551F46401A5
S1130960CC0CDD1CCC0CDD1CCC0CDD1CCC0CDD1C3F
S113097018C00430110519F4C80CD91C12C0063073
S1130980110551F45401AA0CBB1CAA0CBB1CAA0CE3
S1130990BB1CAA0CBB1C05C00730110511F4A80C24
S11309A0B91C0F5F1F4F93CF20E04A2D6C2D8E2D65
S11309B00E9449009FEF2DE389E49150204080403C
S11309C0E1F700C0000065960FB6F894DEBF0FBED5
S11309D0CDBFDF91CF911F910F91FF90EF90DF90EA
S11309E0CF90BF90AF909F908F900895CF92DF9259
S11309F0EF92FF921F93CF93DF93CDB7DEB72C977F
S1130A000FB6F894DEBF0FBECDBF60E070E081E0AA
S1130A1090E00E94B10286E990E00E945F0361E0E9
S1130A2070E083E090E00E94B1028BE290E00E94CB
S1130A301C0380E690E00E945F0362E070E083E0C4
S1130A4090E00E94B1028BE28A83CE0101966C0190
S1130A50E12CF12C0E94B107182FEFE5FAEE319743
S1130A60F1F700C000008A3219F40E94760502C032
S1130A708E34C1F0812F90E00E941C03F601119383
S1130A806F01FFEFEF1AFF0A2FEF84E39CE0215080
S1130A9080409040E1F700C00000EBE0EE16F10466
S1130AA0C9F604C0FBE0EF16F104A4F2BE016F5FC7
S1130AB07F4FFB0101900020E9F7AF01461B570B64
S1130AC080E690E00E9419080E9476050E94A00228
S1130AD02C960FB6F894DEBF0FBECDBFDF91CF9139
S1130AE01F91FF90EF90DF90CF90089560E070E049
S1130AF081E090E00E94B1028CEB90E00E945F03E1
S1130B0060E070E082E090E00E94B10287EA90E049
S1130B100E945F030E94B1078A3229F40E94A00256
S1130B200E94DB050895813329F40E94A0020E94EB
S1130B30F60408950E947605089560E070E081E06F
S1130B4090E00E94B1028FEF90E00E945F0362E0A8
S1130B5070E082E090E00E94B1028AEB90E00E9493
S1130B605F0362E070E083E090E00E94B1028DECEC
S1130B7090E00E945F030E94B107EFE1FEE4319729
S1130B80F1F700C00000813329F40E94A0020E9402
S1130B9076050895823329F40E94A0020E94750705
S1130BA008958A3229F40E94A0020E94DB05089568
S1130BB00E949D05089563E070E082E090E00E9449
S1130BC0B1028DED90E00E945F0363E070E083E08A
S1130BD090E00E94B1028DEE90E00E945F0363E01A
S1130BE070E084E090E00E94B1028DEF90E00E94FA
S1130BF05F0362E070E081E090E00E94B1028FE068
S1130C0091E00E945F0385E88A95F1F700000E9455
S1130C10B107813329F40E94A0020E94210608959D
S1130C20823329F40E94A0020E945B060895833354
S1130C3029F40E94A0020E949D0508950E94DB05EC
S1130C40089560E070E081E090E00E94B1028FEDD1
S1130C5090E00E945F0362E070E082E090E00E9416
S1130C60B1028DE191E00E945F0362E070E083E0F5
S1130C7090E00E94B10287E291E00E945F0362E08B
S1130C8070E084E090E00E94B10281E391E00E9470
S1130C905F038FE19EE40197F1F700C000000E941A
S1130CA0B1078A3229F40E94A0020E94DB0508954C
S1130CB00E94210608950F931F93CF93DF9360E062
S1130CC070E081E090E00E94B1028FEE90E00E941B
S1130CD05F0362E070E082E090E00E94B1028BE387
S1130CE091E00E945F030E94B107EFE1FEE43197B7
S1130CF0F1F700C000008A3229F40E94A0020E9489
S1130D00DB052BC08E3439F1C82FD0E0CE010E9410
S1130D10FB078C0169E070E083E090E00E94B1027F
S1130D20CE010E941C03FFEF29E688E1F150204028
S1130D308040E1F700C000001016110674F4C0E012
S1130D40D0E00E94A002CE010E94B20621960C17A8
S1130D501D07B9F702C00E945B06DF91CF911F9176
S1130D600F9108950F931F93CF93DF931F92CDB7E5
S1130D70DEB78C014AE050E0BE016F5F7F4F0E94F6
S1130D80220860E070E081E090E00E94B10289E412
S1130D9091E00E945F03898190E00E945F0362E01A
S1130DA070E083E090E00E94B1028FE491E00E9441
S1130DB05F0362E070E084E090E00E94B10285E5A8
S1130DC091E00E945F030E94B1078A3221F4C801B6
S1130DD00E945B0610C0813331F40E94A002C80156
S1130DE00E94010708C0823319F40E94A00203C0C4
S1130DF0C8010E94B2060F90DF91CF911F910F910D
S1130E0008950F931F93CF93DF931F92CDB7DEB74F
S1130E108C0160E070E081E090E00E94B1028CE51A
S1130E2091E00E945F0362E070E083E090E00E9442
S1130E30B10285E691E00E945F038FE19EE4019791
S1130E40F1F700C000000E94B10789838A3221F4BF
S1130E50C8010E94B20643C08E34F1F1CE0101965E
S1130E600E94FB079FEF29E688E1915020408040D3
S1130E70E1F700C000008FE19EE40197F1F700C0A4
S1130E8000000E94B10789838E34A9F3CE01019634
S1130E900E94FB079FEF29E688E1915020408040A3
S1130EA0E1F700C000008FE19EE40197F1F700C074
S1130EB000000E94B10789838E34A9F3CE01019604
S1130EC00E94FB079FEF29E688E191502040804073
S1130ED0E1F700C0000003C0C8010E9401070F90A1
S1130EE0DF91CF911F910F91089560E070E081E050
S1130EF090E00E94B1028FE691E00E945F0360E0FF
S1130F0070E082E090E00E94B1028DE791E00E94DF
S1130F105F0360E070E083E090E00E94B10288E843
S1130F2091E00E945F030E94B107EFE1FEE4319774
S1130F30F1F700C000008A3229F40E94A0020E9446
S1130F409D050895813319F40E94A0020895823307
S1130F5029F40E94A0020E941B0408950E947507B0
S1130F60089580E88BBBC89926C0C99926C0CA9940
S1130F7026C0CB9926C080E48BBBC89924C0C999EC
S1130F8024C0CA9924C0CB9924C080E28BBBC899E1
S1130F9022C0C99922C0CA9922C0CB9922C080E13B
S1130FA08BBBC89920C0C99920C0CA9920C0CB99CD
S1130FB020C08EE4089581E6089583E3089582E3D2
S1130FC0089581E3089582E6089586E3089585E30C
S1130FD0089584E3089583E6089589E3089588E3F2
S1130FE0089587E3089584E6089583E2089580E3ED
S1130FF008958AE20895FC0188279927E8942191AD
S11310002032E9F3293010F02E30C8F32B3241F0AE
S11310102D3239F4689404C00E943808820F911D5F
S1131020219120532A30C0F31EF4909581959F4F4F
S11310300895FB01DC0102C001900D924150504023
S1131040D8F708954532510520F4423010F00C943D
S11310502D08FB011082CB010895BB274A3031F4DF
S1131060992322F4BDE2909581959F4F0C944108F9
S11310707AE0979F902D879F802D910D11240895DC
S1131080BB27FB015527AA27880F991FAA1FA4175E
S113109010F0A41B83955051B9F7A05DAA3308F052
S11310A0A95DA193009779F7B111B1931192CB0186
S11310B00C94730AAEE0B0E0E0E6F8E00C942B0B7D
S11310C00D891E8986E08C831A8309838FEF9FE73D
S11310D09E838D83AE01475E5F4F6F89788DCE010D
S11310E001960E947C08EF81F885E00FF11F1082C1
S11310F02E96E4E00C94470BABE0B0E0E2E8F8E0B5
S11311000C941D0B6C017B018A01FC011782168271
S1131110838181FFCCC1CE0101963C01F60193810C
S1131120F70193FD859193FF81917F01882309F451
S1131130BAC1853239F493FD859193FF81917F0182
S1131140853229F4B60190E00E94830AE7CF912CFE
S1131150212C312CFFE1F315D8F08B3279F038F4DF
S1131160803279F08332A1F4232D20611DC08D32A9
S113117061F0803369F4232D216016C0832D8260D1
S1131180382EE32DE4603E2E2AC0F32DF8601DC0F6
S113119037FC2DC020ED280F2A3040F08E32B9F4F0
S11311A036FC81C1232D2064322E19C036FE06C0C0
S11311B08AE0989E200D1124922E11C0EAE02E9E02
S11311C0200D1124222EF32DF0623F2E08C08C3600
S11311D021F4832D8068382E02C0883641F4F7014B
S11311E093FD859193FF81917F018111B3CF982F56
S11311F09F7D9554933028F40C5F1F4F9FE3998390
S11312000DC0833631F0833771F0833509F059C04E
S113121021C0F801808189830E5F1F4F8824839445
S1131220912C530113C02801F2E04F0E511CF80118
S1131230A080B18036FE03C0692D70E002C06FEF5C
S11312407FEFC5010E94680A4C018201F32DFF77EC
S11312503F2E16C0280122E0420E511CF801A08046
S1131260B18036FE03C0692D70E002C06FEF7FEFDE
S1131270C5010E945D0A4C01F32DF0683F2E8201E6
S113128033FC1BC0822D90E088169906B0F4B60199
S113129080E290E00E94830A2A94F4CFF50137FC9F
S11312A0859137FE81915F01B60190E00E94830A27
S11312B021102A9421E0821A91088114910471F773
S11312C0E8C0843611F0893641F5F80137FE07C0CD
S11312D060817181828193810C5F1F4F08C060819E
S11312E07181072E000C880B990B0E5F1F4FF32D95
S11312F0FF763F2E97FF09C0909580957095619574
S11313007F4F8F4F9F4FF0683F2E2AE030E0A301BC
S11313100E94BF0A882E861845C0853731F4232DD4
S11313202F7EB22E2AE030E025C0932D997FB92E6E
S11313308F36C1F018F4883579F0B5C0803719F0CC
S1131340883721F0B0C0E92FE061BE2EB4FE0DC095
S1131350FB2DF460BF2E09C034FE0AC0292F26607D
S1131360B22E06C028E030E005C020E130E002C023
S113137020E132E0F801B7FE07C06081718182810B
S113138093810C5F1F4F06C06081718180E090E003
S11313900E5F1F4FA3010E94BF0A882E8618FB2DE3
S11313A0FF773F2E36FE0DC0232D2E7FA22E8914EB
S11313B058F434FE0BC032FC09C0832D8E7EA82E57
S11313C005C0B82CA32C03C0B82C01C0B92CA4FEB2
S11313D00FC0FE01E80DF11D8081803321F49A2DA8
S11313E0997EA92E09C0A2FE06C0B394B39404C08A
S11313F08A2D867809F0B394A3FC11C0A0FE06C020
S1131400B21488F4280C922C9B180EC0B21460F409
S1131410B60180E290E00E94830AB394F7CFB2143D
S113142018F42B1802C0982C212CA4FE10C0B6016D
S113143080E390E00E94830AA2FE17C0A1FC03C0CF
S113144088E790E002C088E590E0B6010CC08A2DE0
S1131450867859F0A1FE02C08BE201C080E2A7FCAD
S11314608DE2B60190E00E94830A891438F4B60133
S113147080E390E00E94830A9A94F7CF8A94F30160
S1131480E80DF11D8081B60190E00E94830A81106D
S1131490F5CF222009F442CEB60180E290E00E940A
S11314A0830A2A94F6CFF6018681978102C08FEFD2
S11314B09FEF2B96E2E10C94390BFC0105906150EF
S11314C070400110D8F7809590958E0F9F1F089556
S11314D0FC016150704001900110D8F780959095FF
S11314E08E0F9F1F0895DC01FC01672F71917723F4
S11314F0E1F7329704C07C916D9370836291AE17CB
S1131500BF07C8F308950F931F93CF93DF93FB0195
S1131510238121FD03C08FEF9FEF2CC022FF16C053
S113152046815781248135814217530744F4A081B1
S1131530B1819D012F5F3F4F318320838C9326819E
S113154037812F5F3F4F3783268314C08B01EC0113
S1131550FB010084F185E02D0995892BE1F6D80182
S113156016968D919C911797019617969C938E933E
S11315701697CE01DF91CF911F910F910895FA0133
S1131580AA27283051F1203181F1E8946F936E7FBE
S11315906E5F7F4F8F4F9F4FAF4FB1E03ED0B4E0AF
S11315A03CD0670F781F891F9A1FA11D680F791FF0
S11315B08A1F911DA11D6A0F711D811D911DA11D01
S11315C020D009F468943F912AE0269F1124301911
S11315D0305D3193DEF6CF010895462F4770405DAC
S11315E04193B3E00FD0C9F7F6CF462F4F70405D5B
S11315F04A3318F0495D31FD4052419302D0A9F7B6
S1131600EACFB4E0A6959795879577956795BA95AF
S1131610C9F700976105710508959B01AC010A2E75
S113162006945795479537952795BA95C9F7620F4C
S1131630731F841F951FA01D08952F923F924F92F0
S11316405F926F927F928F929F92AF92BF92CF924E
S1131650DF92EF92FF920F931F93CF93DF93CDB757
S1131660DEB7CA1BDB0B0FB6F894DEBF0FBECDBFCF
S113167009942A88398848885F846E847D848C84A0
S11316809B84AA84B984C884DF80EE80FD800C81A9
S11316901B81AA81B981CE0FD11D0FB6F894DEBF8C
S10F16A00FBECDBFED010895F894FFCFFC
S11316AC3934373730373435363738004D656420A4
S11316BC417373697374210053656E64696E6700BA
S11316CC446F6E6500253032783A253032783A25ED
S11316DC303278202000456E746572207468652061
S11316EC4E756D62657200312E454D455247454E1F
S11316FC4359204E554D42455200312E4D455353BE
S113170C4147452053455454494E475300322E54B7
S113171C494D4520414E44204441544500312E440A
S113172C4F5345205343484544554C4500322E44B1
S113173C4F53452053455454494E475300332E536D
S113174C595354454D2053455454494E4753005313
S113175C454C454354204F5054494F4E005431206E
S113176C2030383A3030005432202030383A30307F
S113177C005433202031303A3030004472756720E5
S113178C436F756E74202D200054797065200031E0
S113179C2E44617900322E486F75720044617920B1
S11317AC446F7365004D6F726E696E672020004440
S11317BC41544520414E442054494D4500312E534B
S11317CC4554204441544500322E53455420544929
S11317DC4D450053756E004D6F6E00547565005782
S11317EC65640054687500467269005361740000A6
S9030000FC
